:020000040800F2
:1000000020090020352500083D2300083F23000873
:1000100043230008472300084B230008000000008A
:100020000000000000000000000000004F23000856
:100030005123000800000000532300085523000846
:100040004F2500084F2500084F2500084F250008C0
:100050004F2500084F2500084F2500084F250008B0
:100060004F2500084F2500084F2500084F250008A0
:100070004F2500084F2500084F2500084F25000890
:100080004F2500084F2500084F2500084F25000880
:100090004F2500084F2500084F2500084F25000870
:1000A0004F2500084F2500084F2500084F25000860
:1000B0004F2500084F250008092200084F25000899
:1000C0004F2500084F2500084F2500084F25000840
:1000D0004F250008392C00084F2500084F2500083F
:1000E0004F2500084F2500084F2500084F25000820
:1000F0004F2500084F2500084F2500084F25000810
:100100004F2500084F2500084F2500084F250008FF
:100110004F2500084F2500084F2500084F250008EF
:100120004F2500084F2500084F2500084F250008DF
:10013000DFF80CD003F024F80048004797200008AF
:100140002009002031490143314A1160704770B5E0
:10015000002100230F22C4780CB32D4C246804F432
:10016000E064C4F5E064210AC1F10403CA404478A4
:1001700004FA03F18478144021430901254C0678E0
:10018000A155047804F01F050124AC4005786D11D9
:100190004FF0E02606EB8505C5F8004109E004783C
:1001A00004F01F050124AC401B4D0678761145F87C
:1001B000264070BD194A0A400243154B1B1F1A60A6
:1001C000704739B1124A121D12680243104B1B1DB1
:1001D0001A6006E00E4A121D126882430C4B1B1D6A
:1001E0001A607047042808D14FF0E021096941F0F6
:1001F00004014FF0E022116107E04FF0E0210969AE
:1002000021F004014FF0E022116170470000FA056F
:100210000CED00E000E400E080E100E080FFFF1F63
:1002200010B50446CA48844208D10121042000F0D8
:1002300027FB0021042000F023FB46E0C548844250
:1002400008D10121082000F01BFB0021082000F04C
:1002500017FB3AE0C048844208D10121102000F089
:100260000FFB0021102000F00BFB2EE0BB48844266
:1002700008D10121202000F003FB0021202000F004
:10028000FFFA22E0B648844208D10121402000F064
:10029000F7FA0021402000F0F3FA16E0B14884425A
:1002A00008D10121802000F0EBFA0021802000F02D
:1002B000E7FA0AE0AC48844207D10121801500F03A
:1002C000DFFA0021A01500F0DBFA10BD10B5012106
:1002D000084600F0D5FA0021012000F0D1FA10BD47
:1002E0002DE9F041024600250026002000230024CD
:1002F000002791F803C00CF00F0591F803C01CF023
:10030000100F03D091F802C04CEA050591F800C027
:10031000BCF1000F31D0146800202BE04FF0010C2D
:100320000CFA00F3B1F800C00CEA03069E4220D19B
:1003300083004FF00F0C0CFA03F7BC4305FA03FCE3
:100340004CEA040491F803C0BCF1280F06D14FF029
:10035000010C0CFA00FCC2F814C00AE091F803C0CA
:10036000BCF1480F05D14FF0010C0CFA00FCC2F8AB
:1003700010C0401C0828D1D31460B1F800C0BCF1F3
:10038000FF0F34DD546800202EE000F1080C4FF020
:10039000010808FA0CF3B1F800C00CEA03069E420B
:1003A00021D183004FF00F0C0CFA03F7BC4305FA80
:1003B00003FC4CEA040491F803C0BCF1280F05D1FA
:1003C00000F1080C08FA0CF8C2F8148091F803C088
:1003D000BCF1480F07D100F1080C4FF0010808FAF2
:1003E0000CF8C2F81080401C0828CED35460BDE839
:1003F000F0814FF6FF710180022181700421C170EC
:1004000070470246002093680B4201D0012000E0B3
:10041000002070470146886880B27047024600207D
:10042000D3680B4201D0012000E000207047014654
:10043000C86880B2704701617047416170470AB176
:10044000016100E041617047C16070474FF4803244
:100450000A438261816182618269826970470246D2
:100460000020424B18684FF68073184040EA021093
:1004700008433E4B186070473D49C8617047F0B56E
:100480000A46002300240021002500F00046B6F1B2
:10049000004F02D1354EF16901E0344E7168C0F36E
:1004A000034583B200F44016B6F5401F08D121F091
:1004B00070612E4E766826F070662C4F7E6012E0DA
:1004C00000F48016B6F5801F06D1032606FA05F45F
:1004D000A14341F0706106E0460D360103FA06F6CD
:1004E000B14341F0706122B1460D360103FA06F6C0
:1004F000314300F00046B6F1004F02D11B4EF161CE
:1005000001E01A4E7160F0BD30B500228B071C0F60
:100510000F2303FA04F2154B08338C1053F82430E0
:100520009343124C08348D1044F8253023468C1028
:1005300053F824308C07240F00FA04F423430B4CA7
:1005400008348D1044F8253030BD0A4908607047E2
:1005500000080140000C014000100140001401405F
:1005600000180140001C0140002001400000014033
:1005700000002042DC002042DD48006840F001001D
:10058000DB49086008464068DA490840D8494860B5
:1005900008460068D8490840D54908600846006800
:1005A00020F4802008600846406820F4FE0048607F
:1005B0004FF41F0088607047CD49096821F48031ED
:1005C000CB4A11601146096821F480211160B0F511
:1005D000803F03D0B0F5802F0ED106E0C4490968F2
:1005E00041F48031C24A116007E0C149096841F411
:1005F000A021BF4A116000E000BF00BF704710B5E6
:1006000001460022002300204A11012A02D1B84CE1
:10061000236806E0022A02D1B54C236A01E0B44CFB
:10062000636A01F01F02012494401C4201D00120A2
:1006300000E0002010BD38B5002000900024002507
:1006400000BF3120FFF7DBFF05460098401C0090FB
:100650000098B0F5A06F01D0002DF2D03120FFF747
:10066000CEFF08B1012400E00024204638BD014639
:1006700000209F4A106820F0F80040EAC100106096
:1006800070479E490860704702460020984B5868A2
:1006900020F47C1042EA01031843954B58607047E0
:1006A00096490866704701460020914A506820F03C
:1006B00003000843506070478D48406800F00C000C
:1006C0007047014600208A4A506820F0F000084335
:1006D0005060704701460020854A506820F4E06071
:1006E00008435060704701460020814A506820F45A
:1006F000605040EAC1005060704729B17C4A527A8C
:1007000002437B4B5A7204E0794A527A8243784B17
:100710005A7270477A490860704701460020744A4F
:10072000506820F440400843506070470021754AEB
:1007300011706F4A82F82010012802D0042808D1D5
:1007400003E001216F4A117004E005216D4A117028
:1007500000E000BF00BF70476B4908607047644904
:10076000096A0143624A1162704767494439086067
:10077000704730B500210022002400235C4D6D68D5
:1007800005F00C0121B1042905D0082923D105E089
:100790005E4D056022E05D4D05601FE0544D6D68C3
:1007A00005F47012524D6D6805F48034022505EB96
:1007B00092421CB9564D554305600BE04C4D6D6897
:1007C00015F4003F03D0524D5543056002E04F4DF4
:1007D0005543056002E04D4D056000BF00BF444D2C
:1007E0006D6805F0F00109094A4D6B5C0568DD4054
:1007F00045603F4D6D6805F4E061090A454D6B5C4D
:100800004568DD4085603A4D6D6805F46051C90A60
:10081000404D6B5C4568DD40C560354D6D6805F445
:100820004041890B3C4D6B5CC568B5FBF3F5056138
:1008300030BD29B12E4A526902432D4B5A6104E062
:100840002B4A526982432A4B5A61704729B1284A80
:1008500092690243264B9A6104E0254A92698243D9
:10086000234B9A61704729B1214AD2690243204B38
:10087000DA6104E01E4AD26982431D4BDA61704797
:1008800029B11B4AD2680243194BDA6004E0184AC6
:10089000D2688243164BDA60704729B1144A126954
:1008A0000243134B1A6104E0114A12698243104B50
:1008B0001A61704714494039086070470F49C8648D
:1008C00070470B49C87170470948406A40F0807012
:1008D00007494862704701460020054A92680A426B
:1008E00001D0012000E00020704701498872704764
:1008F000001002400000FFF8FFFFF6FE0000424239
:10090000D8004242201002408004424200127A0085
:1009100000093D00000000201000002010B5044632
:10092000FB48844209D101218803FFF7A9FF002178
:100930004FF48040FFF7A4FF32E0F648844209D12B
:1009400001214804FFF7A9FF00214FF40030FFF711
:10095000A4FF25E0F048844209D101218804FFF773
:100960009CFF00214FF48020FFF797FF18E0EB4831
:10097000844209D10121C804FFF78FFF00214FF401
:100980000020FFF78AFF0BE0E548844208D10121EF
:100990000805FFF782FF00214FF48010FFF77DFF6D
:1009A00010BD2DE9F04786B005460E460024A2464C
:1009B00000BFA1460027B08900B100BF2F462C8A96
:1009C0004CF6FF700440F08804432C82AC894EF64C
:1009D000F3100440B0883189084371890843044307
:1009E000AC81AC8A4FF6FF400440B0890443AC822E
:1009F00001A8FFF7BEFEC648874202D1DDF810A06D
:100A000001E0DDF80CA0A88910F4004F08D00AEB33
:100A1000CA0000EB0A1031684900B0FBF1F807E0AA
:100A20000AEBCA0000EB0A1031688900B0FBF1F84C
:100A30006420B8FBF0F004012009642101FB108957
:100A4000A88910F4004F08D0322000EBC900B0FB99
:100A5000F1F000F00700044308E0322000EB091039
:100A60006421B0FBF1F000F00F0004432C8106B0CC
:100A7000BDE8F0874FF41651016000218180C180EC
:100A800001810C21418100218181704710B502460E
:100A90000020108A4FF2FF0318400B884C88234334
:100AA0008C882343CC8823431843108210BD002137
:100AB000018041808180C180704721B1828942F4E8
:100AC0000052828104E082894DF6FF731A408281D0
:100AD0007047F0B503460024002600250020A1F54C
:100AE00010676A3F00D100BF1846C1F3421401F0FD
:100AF0001F06012707FA06F5012C01D10C3004E08E
:100B0000022C01D1103000E014301AB107682F43D5
:100B1000076002E00768AF430760F0BD1AB1838A3F
:100B20000B43838202E0838A8B4383827047028A6D
:100B30004FF6F0731A400282028A0A43028270471B
:100B400082894FF2FF731A40828182890A4382812F
:100B5000704721B1828942F00202828104E08289D9
:100B60004FF6FD731A4082817047028A4FF6DF7399
:100B70001A400282028A0A430282704721B1028A25
:100B800042F48042028204E0028A4BF6FF731A406C
:100B900002827047C1F3080282807047014688884C
:100BA000C0F308007047818941F0010181817047DD
:100BB000028BD2B20283028B42EA01220283704787
:100BC000028B02F47F420283028B0A430283704746
:100BD00021B1828A42F02002828204E0828A4FF6AA
:100BE000DF731A408282704721B1828A42F010027C
:100BF000828204E0828A4FF6EF731A408282704745
:100C000021B1828A42F00802828204E0828A4FF691
:100C1000F7731A408282704721B1828942F4004200
:100C2000828103E08289C2F30E028281704721B182
:100C3000828A42F40062828204E0828A4FF2FF7369
:100C40001A4082827047828A4FF6FB731A40828272
:100C5000828A0A438282704721B1828A42F002026C
:100C6000828204E0828A4FF6FD731A4082827047C6
:100C700002460020B1F5007F00D100BF13880B426F
:100C800001D0012000E00020704701F40072B2F5AD
:100C9000007F00D100BFCA430280704770B5024692
:100CA0000024002300250020A1F510666A3E00D133
:100CB00000BFC1F3421501F01F03012606FA03F33A
:100CC000012D02D19689334006E0022D02D1168A09
:100CD000334001E0968A33400C12012606FA04F4F0
:100CE0001688344013B10CB1012000E0002070BD23
:100CF00010B500220023A1F510646A3C00D100BFAA
:100D00000A1201249440A3B2DC43048010BD000009
:100D1000003801400044004000480040004C0040C2
:100D20000050004010B50446FE48844208D101211D
:100D3000C014FFF7A5FD0021E014FFF7A1FDC4E0FA
:100D4000B4F1804F08D101210846FFF7A6FD00212C
:100D50000120FFF7A2FDB8E0F348844208D1012149
:100D60000220FFF79AFD00210220FFF796FDACE07C
:100D7000EE48844208D101210420FFF78EFD0021B6
:100D80000420FFF78AFDA0E0E948844208D1012150
:100D90000820FFF782FD00210820FFF77EFD94E088
:100DA000E448844208D101211020FFF776FD00219C
:100DB0001020FFF772FD88E0DF48844208D101214E
:100DC0002020FFF76AFD00212020FFF766FD7CE070
:100DD000DA48844208D101214014FFF751FD002177
:100DE0006014FFF74DFD70E0D548844209D1012120
:100DF000C804FFF745FD00214FF40020FFF740FD38
:100E000063E0D048844209D101210805FFF738FD8D
:100E100000214FF48010FFF733FD56E0CA488442AA
:100E200009D101214805FFF72BFD00214FF40010E7
:100E3000FFF726FD49E0C548844208D10121402042
:100E4000FFF72BFD00214020FFF727FD3DE0C048C4
:100E5000844208D101218020FFF71FFD002180205E
:100E6000FFF71BFD31E0BB48844208D1012180150A
:100E7000FFF713FD0021A015FFF70FFD25E0B64891
:100E8000844209D101210804FFF7FAFC00214FF444
:100E90008030FFF7F5FC18E0B048844209D1012109
:100EA0004804FFF7EDFC00214FF40030FFF7E8FCA9
:100EB0000BE0AB48844208D101218804FFF7E0FC35
:100EC00000214FF48020FFF7DBFC10BD00220288D8
:100ED000944B98420ED0994B98420BD0B0F1804F72
:100EE00008D0914B984205D0904B984202D0904B3D
:100EF000984204D14FF68F731A404B881A438D4B9A
:100F0000984207D08C4B984204D04FF6FF431A40CA
:100F1000CB881A4302808B8883850B880385814B9D
:100F200098420BD0854B984208D08B4B984205D005
:100F30008A4B984202D08A4B984201D10B7A0386A1
:100F400001238382704770B5002400220023058CA2
:100F50004FF6FE7635400584028C8388048B4FF66D
:100F60008F752C40B51E2C400D882C43751E2A40D1
:100F70000D892A434D882A436A4DA8420BD06F4DF4
:100F8000A84208D0744DA84205D0744DA84202D0A2
:100F9000734DA84213D14FF6F7752A404D892A4365
:100FA0004FF6FB752A408D882A434FF6FF652B408C
:100FB0004FF6FF552B408D892B43CD892B438380E2
:100FC0000483CD888586028470BD70B5002400221C
:100FD0000023058C4FF6EF7635400584028C83881C
:100FE000048B48F6FF752C404FF6FF452C400D88CA
:100FF0004FF6FF7606EA05252C434FF6DF752A40AB
:101000000D8906EA05152A434D8806EA05152A4387
:10101000444DA84202D0494DA8421DD14FF67F75DC
:101020002A404D894FF6FF7606EA05152A434FF60A
:10103000BF752A408D8806EA05152A434FF6FF350D
:101040002B404FF2FF752B408D8906EA85052B4317
:10105000CD8906EA85052B4383800483CD880587E7
:10106000028470BD70B5002400220023058C4FF669
:10107000FF6635400584028C8388848B4FF68F751C
:101080002C404FF6FC752C400D882C434FF6FF5535
:101090002A400D894FF6FF7606EA05252A434D883A
:1010A00006EA05252A431F4DA84202D0234DA84237
:1010B0001DD14FF2FF752A404D894FF6FF7606EAA3
:1010C00005252A434FF6FF352A408D8806EA052577
:1010D0002A434EF6FF752B404DF6FF752B408D8948
:1010E00006EA05152B43CD8906EA05152B438380B7
:1010F0008483CD888587028470BD70B5002200236B
:101100000024058C4EF6FF7635400584038C8488D8
:10111000828B48F6FF752A404FF6FF452A400D881E
:1011200020E00000002C01400004004000080040C6
:10113000000C00400010004000140040003401404A
:10114000004C014000500140005401400018004094
:10115000001C0040002000400040014000440140CD
:10116000004801404FF6FF7606EA05252A434DF672
:10117000FF752B400D8906EA05352B434D8806EA9D
:1011800005352B43FA4DA84202D0FA4DA84208D1AA
:101190004BF6FF752C408D894FF6FF7606EA8515D4
:1011A0002C4384808283CD88A0F84050038470BD96
:1011B000828B4FF2FF331A408283828B4FF6FF738C
:1011C00003EA01231A4382837047F0B50C461546A3
:1011D000002200210026078C4EF6FF7C07EA0C0750
:1011E0000784828B018C4FF6FF7707EA043640F6BE
:1011F000FF473A404FF6FF7707EA05273A434FF695
:10120000FF7707EA03373A43D94FB8420ED0D94F98
:10121000B8420BD0B0F1804F08D0D74FB84205D0BC
:10122000D64FB84202D0D64FB84206D14DF6FF771E
:10123000394046F48057394305E047F6FF573940B7
:1012400044F48057394382830184F0BD828B4FF68A
:10125000F3731A408283828B0A4382837047F0B50E
:101260000C461546002200210026078C4FF6FF6C25
:1012700007EA0C070784828B018C4FF6FF7707EA99
:1012800004264FF60C773A404FF6FF7707EA03172C
:101290002F433A43B64FB8420ED0B64FB8420BD0A8
:1012A000B0F1804F08D0B44FB84205D0B34FB84228
:1012B00002D0B34FB84206D14FF6FF57394046F43B
:1012C0008077394305E04FF2FF57394044F4807787
:1012D000394382830184F0BD028B4FF2FF331A4001
:1012E0000283028B4FF6FF7303EA01231A43028342
:1012F0007047F0B50C461546002200210026078CE9
:101300004FF6EF7C07EA0C070784028B018C4FF63F
:10131000FF7707EA041640F6FF473A404FF6FF779B
:1013200007EA03373A434FF6FF7707EA05273A43C0
:101330008F4FB8420ED08F4FB8420BD0B0F1804FD4
:1013400008D08D4FB84205D08C4FB84202D08C4F98
:10135000B84206D14FF6DF77394046F010073943DF
:1013600005E04FF65F77394044F0100739430283B8
:101370000184F0BD028B4FF6F3731A400283028B97
:101380000A4302837047F0B50C461546002200213F
:10139000068C4FF6FE773E400684028B018C4FF69A
:1013A0000C7632407E1C06EA03162E433243704E02
:1013B000B0420ED06F4EB0420BD0B0F1804F08D08B
:1013C0006D4EB04205D06D4EB04202D06C4EB04270
:1013D00006D14FF6FD76314044F00106314305E079
:1013E0004FF6F576314044F0010631430283018423
:1013F000F0BD70B505460C465D4885420ED05D488F
:1014000085420BD0B5F1804F08D05B48854205D0AE
:101410005A48854202D05A48854200D100E000BFB8
:10142000208850B92389A28861882846FFF7ABFF3E
:10143000E1882846FFF79EFF25E0208804280AD18E
:101440002389A28861882846FFF753FFE188284650
:10145000FFF742FF17E0208808280AD12389A288D5
:1014600061882846FFF7FBFEE1882846FFF7EEFE7D
:1014700009E02389A28861882846FFF7A6FEE18853
:101480002846FFF795FE70BD2DE9F04105460C4654
:1014900000260127608808B9022600E00026A088FF
:1014A000012801D1022700E001272088A0B9238963
:1014B000A28861882846FFF766FFE1882846FFF783
:1014C00059FF23893A4631462846FFF712FFE18843
:1014D0002846FFF701FF13E02389A2886188284688
:1014E000FFF707FFE1882846FFF7F6FE23893A4613
:1014F00031462846FFF747FFE1882846FFF73AFFC5
:10150000BDE8F0810A884B881A438B881A43CB8840
:101510001A430B891A434B891A438B891A43A0F843
:10152000442070474FF6FF71818000210180C18007
:101530004180017270470021018041808180C1801B
:10154000018141818181C1817047002101804180F9
:10155000012181800021C18001817047002101802B
:1015600041808180C180018141818181704700007B
:10157000002C0140003401400004004000080040FD
:10158000000C004021B1028842F00102028004E018
:1015900002884FF6FE731A400280704731B1B0F8EE
:1015A000442042F40042A0F8442005E0B0F8442072
:1015B000C2F30E02A0F8442070471AB183890B438E
:1015C000838102E083898B438381704781827047E6
:1015D00041EA0203A0F8483070471AB183890B43EF
:1015E000838102E083898B438381704701894FF6B1
:1015F000F8721140018170470A46002101894FF6B7
:101600008F73194011430181704730B504460D4670
:1016100029462046FFF7F0FF208940F0070020818F
:1016200030BD2DE9F04104460D4616461F46602D9B
:1016300006D13B46012231462046FFF75AFE05E01F
:101640003B46012231462046FFF79DFE29462046B3
:10165000FFF7D2FF208940F007002081BDE8F0812C
:1016600030B50C4600210189C9B24FF6FF7505EA75
:101670000325154325432943018130BD2DE9F04160
:1016800005460E4617469846002443463A463146DC
:101690002846FFF7E5FF2C894FF6F870044044F028
:1016A00007044FF68F70044044F070042C81BDE8AD
:1016B000F081F0B504460D4616461F463B463246BD
:1016C00029462046FFF7CCFF208940F48040208146
:1016D000F0BD0185828270470A46002101884FF6DD
:1016E0008F731940114301807047F0B50C461546C1
:1016F0001E460021002200230189028B038C4FF635
:10170000F877394021434FF6FC473A4040F2011741
:101710003A434FF6DD773B404FF6FF7707EA06176F
:101720002F433B43018102830384F0BD0A4600211D
:10173000018B4FF68F7319401143018370470A469E
:101740000021018B48F6FF7319404FF6FF7303EA3F
:1017500002231943018370470A460021818B4FF60B
:101760008F7319401143818370470A460021818B92
:1017700048F6FF7319404FF6FF7303EA022319433B
:101780008183704721B1028842F08002028004E028
:1017900002884FF67F731A400280704721B1828819
:1017A00042F00402828004E082884FF6FB731A4004
:1017B0008280704721B1828842F00802828004E072
:1017C00082884FF6F7731A408280704721B1828871
:1017D00042F00102828004E082884FF6FE731A40D4
:1017E000828070470A460021018B4FF6F77319403B
:1017F0001143018370470A460021018B4FF2FF73AA
:1018000019404FF6FF7303EA02231943018370471F
:101810000A460021818B4FF6F773194011438183EB
:1018200070470A460021818B4FF2FF7319404FF633
:10183000FF7303EA02231943818370470A4600219C
:10184000018B4FF6FB7319401143018370470A4621
:101850000021018B4FF6FF3319404FF6FF7303EA67
:1018600002231943018370470A460021818B4FF6FA
:10187000FB7319401143818370470A460021818B15
:101880004FF6FF3319404FF6FF7303EA0223194363
:10189000818370470A460021018B4FF67F73194000
:1018A0001143018370470A460021018BC1F30E01E9
:1018B0004FF6FF7303EA02231943018370470A4678
:1018C0000021818B4FF67F7319401143818370474C
:1018D0000A460021818BC1F30E014FF6FF7303EA24
:1018E00002231943818370470A460021018C4FF679
:1018F000FD7319401143018470470A460021018C91
:101900004FF6F77319401143018470470A460021CE
:10191000018C4FF6DF7319404FF6FF7303EA021391
:101920001943018470470A460021018C4FF67F73EA
:1019300019404FF6FF7303EA0213194301847047FD
:101940000A460021018C4FF6FF5319404FF6FF73F2
:1019500003EA02231943018470470A460021018CDF
:101960004FF2FF7319404FF6FF7303EA0223194346
:10197000018470470A460021018C4DF6FF7319401F
:101980004FF6FF7303EA023319430184704730B501
:10199000002301248C40A3B2048C9C430484048C57
:1019A00002FA01F5ADB22C43048430BD30B50023FA
:1019B00004248C40A3B2048C9C430484048C02FA5B
:1019C00001F5ADB22C43048430BD70B50346002050
:1019D00000241846183001258D40ACB21D8CA5435B
:1019E0001D8409B1082909D100EB6100056825F0C3
:1019F000700505600568154305600EE00D1FC5F311
:101A00004E052844056825F4E045056005684FF655
:101A1000FF7606EA02263543056070BD21B10288D3
:101A200042F00202028004E002884FF6FD731A4081
:101A30000280704721B1028842F00402028004E073
:101A400002884FF6FB731A400280704721B18288EA
:101A500042F08002828004E082884FF67F731A4051
:101A60008280704702884FF6F7731A40028002881E
:101A70000A430280704782884FF68F731A40828033
:101A800082880A438280704702894FF6F8731A40B1
:101A9000028102890A430281704702894FF67F73EF
:101AA0001A40028102890A4302817047818470478B
:101AB00081857047818670470187704781877047AD
:101AC000A0F84010704702884FF6FF431A4002808A
:101AD00002880A43028070470146888E704701469B
:101AE000088F70470146888F70470146B1F8400063
:101AF00070470146888C70470146088D7047024642
:101B00000020138A0B4201D0012000E00020704722
:101B1000CA430282704730B50246002000230024E9
:101B2000158A05EA0103958905EA010413B10CB190
:101B3000012000E0002030BDCA430282704700004F
:101B4000142847D2DFE800F00A0D101316191C1FE5
:101B50002225282B2E3134373A3D4043FE4A11606E
:101B600038E0FE4A116035E0FD4A116032E0FD4A7E
:101B700011602FE0FC4A11602CE0FC4A116029E062
:101B8000FB4A116026E0FB4A116023E0FA4A11602B
:101B900020E0FA4A11601DE0F94A11601AE0F94AA2
:101BA000116017E0F84A116014E0F84A116011E082
:101BB000F74A11600EE0F74A11600BE0F64A116037
:101BC00008E0F64A116005E0F54A116002E0F54AC6
:101BD000116000BF00BF704710B50446F24830F8EE
:101BE0001400322847DA092C0ED101212046FFF7D4
:101BF000A7FF611CC8B20121FFF7A2FFA11CC8B258
:101C00000121FFF79DFFFDE10C2C13D1012120469E
:101C1000FFF796FF611CC8B20121FFF791FFA11CDD
:101C2000C8B20121FFF78CFFE11CC8B20121FFF708
:101C300087FFE7E1102C0ED101212046FFF780FF3E
:101C4000611CC8B20121FFF77BFFA11CC8B20121B2
:101C5000FFF776FFD6E1132C08D101212046FFF7CC
:101C60006FFF01210320FFF76BFFCBE1012120462D
:101C7000FFF766FFC6E1CC4830F8140032284CDB91
:101C8000C94830F81400642847DA092C0ED1002125
:101C90002046FFF755FF611CC8B20021FFF750FF37
:101CA000A11CC8B20021FFF74BFFABE10C2C13D1F4
:101CB00000212046FFF744FF611CC8B20021FFF756
:101CC0003FFFA11CC8B20021FFF73AFFE11CC8B2D8
:101CD0000021FFF735FF95E1102C0ED100212046A1
:101CE000FFF72EFF611CC8B20021FFF729FFA11CDE
:101CF000C8B20021FFF724FF84E1132C08D1002192
:101D00002046FFF71DFF00210320FFF719FF79E1AF
:101D100000212046FFF714FF74E1A34830F81400B7
:101D200064284CDBA04830F81400962847DA092CC8
:101D30000ED101212046FFF703FF611CC8B201212B
:101D4000FFF7FEFEA11CC8B20121FFF7F9FE59E121
:101D50000C2C13D101212046FFF7F2FE611CC8B202
:101D60000121FFF7EDFEA11CC8B20121FFF7E8FE3B
:101D7000E11CC8B20121FFF7E3FE43E1102C0ED1B4
:101D800001212046FFF7DCFE611CC8B20121FFF7EC
:101D9000D7FEA11CC8B20121FFF7D2FE32E1132CFD
:101DA00008D101212046FFF7CBFE01210320FFF7D8
:101DB000C7FE27E101212046FFF7C2FE22E17A4853
:101DC00030F8140096284CDB774830F81400C82807
:101DD00047DA092C0ED100212046FFF7B1FE611C25
:101DE000C8B20021FFF7ACFEA11CC8B20021FFF76A
:101DF000A7FE07E10C2C13D100212046FFF7A0FE1F
:101E0000611CC8B20021FFF79BFEA11CC8B20021D3
:101E1000FFF796FEE11CC8B20021FFF791FEF1E04A
:101E2000102C0ED100212046FFF78AFE611CC8B29B
:101E30000021FFF785FEA11CC8B20021FFF780FE3C
:101E4000E0E0132C08D100212046FFF779FE0021A5
:101E50000320FFF775FED5E000212046FFF770FE56
:101E6000D0E0514830F81400C8284DDB4E4830F817
:101E70001400B0F5FA7F47DA092C0ED10121204673
:101E8000FFF75EFE611CC8B20121FFF759FEA11CDD
:101E9000C8B20121FFF754FEB4E00C2C13D101218C
:101EA0002046FFF74DFE611CC8B20121FFF748FE36
:101EB000A11CC8B20121FFF743FEE11CC8B20121F9
:101EC000FFF73EFE9EE0102C0ED101212046FFF7C9
:101ED00037FE611CC8B20121FFF732FEA11CC8B257
:101EE0000121FFF72DFE8DE0132C08D101212046A2
:101EF000FFF726FE01210320FFF722FE82E00121E9
:101F00002046FFF71DFE7DE0274830F81400B0F5AD
:101F1000FA7F77DB092C0ED100212046FFF710FE57
:101F2000611CC8B20021FFF70BFEA11CC8B2002142
:101F3000FFF706FE60E00C2C3ED100212046FFF7A3
:101F4000FFFD611CC8B20021FFF7FAFDA11CC8B259
:101F50000021FFF7F5FD29E08481214280812142A3
:101F60009C01214298012142940121429001214289
:101F70008C0121428801214284012142BC0122427C
:101F8000B8012242B4012242A4812142A08121420F
:101F90009C81214298812142948121429081214259
:101FA0008C812142BC01214294000020E11CC8B276
:101FB0000021FFF7C5FD1FE0102C0ED100212046A7
:101FC000FFF7BEFD611CC8B20021FFF7B9FDA11CDF
:101FD000C8B20021FFF7B4FD0EE0132C08D1002198
:101FE0002046FFF7ADFD00210320FFF7A9FD03E028
:101FF00000212046FFF7A4FD0020B3490855B3494E
:1020000021F8140010BD10B5002400BF0CE004EB53
:102010004402AF4B03EB820149F64142224490B2A5
:1020200000F0C3FA601CC4B2142CF0DB10BD1FB565
:1020300001210420FEF717FCA6480068A649B0FB62
:10204000F1F0401E80B2ADF8040040F27D40ADF8E2
:1020500008000020ADF80A00ADF8060001A99F486D
:10206000FEF734FF012211469C48FFF7A6FA012132
:102070009A48FFF787FA1E208DF8000000208DF89F
:10208000010005208DF8020001208DF8030068464C
:10209000FEF75DF81FBD002400F0CCF901210846D1
:1020A000FEF7D4FB01218E48FEF7E9F90121082053
:1020B000FEF7CCFB01210420FEF7C8FB0121102014
:1020C000FEF7C4FB41F2FB3086490880032088708C
:1020D0001020C8708448FEF703F94FF4604081492E
:1020E0000880032088701020C8708048FEF7F8F838
:1020F00048F6FE007B490880032088701020C870D5
:102100007B48FEF7EDF8FFF792FF00F0CBFD0021D2
:102110004FF4165000F00DFF012000F021FA4FF4AB
:102120006141744800F044FCFFF76DFF00BF08E018
:10213000002004EB4401704A02EB81010871601C2D
:10214000C4B2142CF4DB01206C4908604FF000008D
:102150006B4908606B49086001F10401086001F1F6
:102160000401086001F10401086001F10401086044
:1021700001F10401086001F104010860624908608E
:1021800001F104010860614908606149086001F1DA
:102190000401086001F10401086001F10401086014
:1021A00001F10401086001F10401086001F104017A
:1021B00008605849086001F10401086056A000F069
:1021C000EDFE20E000F03BFC00241AE004EB4400AC
:1021D0003F4901EB80004068FF2809D101203A49BE
:1021E0000855002004EB4401394A02EB81014860A4
:1021F0003548005D012802D12046FFF7EDFC601C48
:10220000C4B2142CE2DBDDE710B501213348FFF73F
:1022100082FC38B346480068401C454908600846BF
:102220000068642808D900200860344800686FEA14
:1022300000004049C1F8B0014FF000040CE0224812
:10224000005D012806D1214830F81400401C1F49C8
:1022500021F81400601CC4B2142CF0DB01211F48CB
:10226000FFF76AFC10BD002106E0002200E0521CCE
:10227000B2F5E15FFBD3491C8142F6D3704710B53C
:10228000002400BF09E004EB44001B4A02EB80017C
:10229000601C00F077F9601CC4B2142CF3DB10BD95
:1022A0003EB505460C46002000900190029028465D
:1022B00000F074FE224620A1684600F073FF6846D5
:1022C00000F06CFE3EBD00006C0000209400002079
:1022D000AC0100201C00002040420F00000800401C
:1022E0000004300018000020000C014000100140E4
:1022F0000008014000380140BC000020B0812142AC
:10230000BC0122428401214280812142BC01214240
:102310008C812142B401224250726F6A656374203D
:10232000484D49205745494E54454B0A000000008E
:10233000140000200080214225750A00704700BF6C
:10234000FEE700BFFEE700BFFEE700BFFEE7704705
:1023500070477047704700000CB500200190009056
:102360006B48006840F480306949086000BF6848E5
:10237000006800F4003000900198401C0190009823
:1023800018B90198B0F5A06FF1D16148006810F458
:10239000003F02D00120009001E000200090009852
:1023A000012842D15B48006840F01000594908609C
:1023B0000846006820F0030008600846006840F006
:1023C0000200086052484068514948600846406829
:1023D00048600846406840F48060486008464068AD
:1023E00020F47C1048600846406840F4E8104860DB
:1023F0000846006840F08070086000BF44480068EC
:1024000010F0007FFAD04248406820F003004049B5
:1024100048600846406840F00200486000BF3C4801
:10242000406800F00C000828F9D10CBD10B5FFF78A
:1024300093FF10BD10B53648006840F001003449E4
:1024400008600846406834490840314948600846F9
:102450000068324908402E4908600846006820F4A8
:10246000802008600846406820F4FE0048604FF471
:102470001F008860FFF7DAFF4FF00060284908600E
:1024800010BD10B5002100200022214B5B6803F035
:102490000C0121B1042906D0082928D107E0214BDD
:1024A000214C236027E01F4B1F4C236023E0184B77
:1024B0005B6803F47010164B5B6803F480320223F0
:1024C00003EB904022B9194B4343174C23600DE0B6
:1024D0000F4B5B6813F4003F04D0144B4343124C82
:1024E000236003E00F4B43430F4C236003E00D4B8D
:1024F0000D4C236000BF00BF054B5B68C3F30313A3
:102500000B4CE15C084B1B68CB40074C236010BDB3
:1025100000100240002002400000FFF8FFFFF6FE1E
:1025200008ED00E000127A001C00002000093D00C8
:10253000200000200648804706480047FEE7FEE7E7
:10254000FEE7FEE7FEE7FEE7FEE7FEE7FEE7FEE763
:102550003524000831010008002004490870704744
:102560000249087070470148007870473000002029
:1025700000205E4908605E4908605E4908605E4967
:1025800008607047086000220A718A60574A126822
:102590002AB9564A11601268554B1A6004E0544A31
:1025A00012689160524A11607047086000224A60C8
:1025B0008A60504A12682AB94E4A116012684E4B1E
:1025C0001A6004E04C4A126891604B4A11607047EF
:1025D00070B5054644F62060854216D20C2000F006
:1025E000DDFE0446256000202071A0603F480068A1
:1025F00028B93E48046000683D49086004E03C4852
:10260000006884603A48046016E00C2000F0C6FEC2
:102610000446256000206060A0603648006828B944
:102620003448046000683449086004E032480068B7
:1026300084603148046000BF70BD024644F62060EB
:1026400082420ED22948016809B90020704700BFB4
:102650000868904201D10846F8E789680029F7D157
:102660000EE02448016809B90020EFE700BF0868C0
:10267000904201D10846E9E789680029F7D100BFF7
:102680000020E3E710B5034644F62060834208D2F9
:102690001846FFF7D2FF04460CB1207910BD002088
:1026A000FCE71846FFF7C9FF04460CB16068F5E780
:1026B0000020F3E730B505460B4644F6206085421E
:1026C0000BD22846FFF7B9FF04462CB113B1FF2007
:1026D000207101E00020207106E02846FFF7ADFFE1
:1026E000044604B1636000BF30BD00003400002028
:1026F000380000203C000020400000202DE9F0417F
:1027000002460B46FF24FF25A3F1020C0CF0FF0745
:1027100016460DE016F801CB8CEA0401DFF888C2FA
:102720001CF801C08CEA0504DFF880C21CF80150D7
:102730005FEA070CA7F1010808F0FF07EAD145EAB4
:102740000420BDE8F0812DE9F05F824688461646F8
:102750001D464FF0000900240027BAF1020F05D1F1
:1027600042F2117040441FFA80F803E008F10100C2
:102770001FFA80F83046F11706EB5171C1F3C70715
:10278000F11706EB5171C910B6EBC10101D0781CED
:10279000C7B2781DC7B2FFF7E6FE287085F801A022
:1027A000781FA87036E04046FFF76CFF90B1E11744
:1027B00004EB5171C910C91C695C012202FA09F2CB
:1027C0001143CAB22046E11704EB5171C910C91C6C
:1027D0006A5410E0E11704EB5171C910C91C695C1F
:1027E000012202FA09F291432046E21704EB5272E9
:1027F000D210D21CA95409F1010000F0FF09B9F16F
:10280000070F01DD4FF00009601CC4B208F10100A0
:102810001FFA80F83000A6F101018EB2C3D139460B
:102820002846FFF76BFF83464FEA2B21B81E295439
:10283000781E05F800B03846BDE8F09F2DE9F05F3E
:1028400080460F4691461C4600250026B8F1040F2D
:1028500004D147F23150384487B203E049F6414091
:10286000384487B24FEA4960060E701DC6B2FFF7C2
:102870007AFE207084F80180701FA07011E0781932
:10288000FFF700FF1FFA80FA4FEA2A20032101EB2D
:1028900045016054042101EB450104F801A0681CC6
:1028A00085B25FEA0900A9F101011FFA81F9E6D1B9
:1028B00031462046FFF722FF83464FEA2B21B01E08
:1028C0002154701E04F800B03046BDE8F09F2DE999
:1028D000F04781460D4617461C46082600BFFFF705
:1028E00042FE2070B9F1050F06D13946681CFFF78A
:1028F000E1FE0520607007E0394649F64140284472
:10290000FFF7D8FE062060702812A070E57038121C
:102910002071677131462046FFF7F0FE80464FEA8E
:102920002821B01E2154701E04F800800020A055FC
:102930003046BDE8F0872DE9F05F82460D469346AC
:102940001E460A9C08274FF0000800BFFFF70BFE49
:102950002070BAF1100F12D100BF0EE03BF8181032
:1029600005EB080249F64143D018FFF7A3FE1020FB
:10297000607008F1010000F0FF08B045EEDB28129E
:10298000A070E57030122071667139462046FFF75D
:10299000B5FE81464FEA2921B81E2154781E04F85D
:1029A00000903846BDE8F09F08340008083500085C
:1029B00070B505460C460121204600F0D4F9FFF71A
:1029C000D7FD0020AD49086070BDAD4800780128F2
:1029D00009D10020AA490870AA480078AA490870BD
:1029E0000020A8490870704710B5A748007800F08B
:1029F000D5FCA6490860002406E0A548005DA3496F
:102A000009680855601CC4B29F4800788442F4DB12
:102A100010BD002000BF04E000219E4A1154411C5B
:102A200088B23228F8DB7047002000BF04E00021A4
:102A3000974A1154411C88B23228F8DB70472DE9BF
:102A4000F8430024002090490870FFF7BEFF8E482D
:102A5000007808B9BDE8F883FFF7C6FF8B48006827
:102A60000078FF2807D0FFF77EFD884909680978BC
:102A7000884200D0EEE78448017884480068FFF778
:102A80003DFE8549086080480078401E7F490968FE
:102A9000095C7D480078801E7C4A1268105C01EB5E
:102AA00000207D490968884200D0D3E77748006854
:102AB000467876480068C07874490968897840EAA1
:102AC000012872480068407970490968097940EA2C
:102AD0000125284600F062FC70490860002413E0DC
:102AE000082000EB440069490968085C072101EBF4
:102AF0004401664A1268515C40EA0120674909684E
:102B000021F81400601CC4B2AC42E9DB5F480068E5
:102B1000007A5E490968C97940EA01295B48006882
:102B200000F014FC002058490870052E34D008DC51
:102B3000012E16D0022E0BD0032E24D0042E52D1FB
:102B400018E0062E31D00F2E38D0102E4BD13EE09B
:102B5000504B2A4641463046FFF7F5FD4A4908707A
:102B600042E04C4B2A4641463046FFF7ECFD4649D1
:102B7000087039E0474B2A4641463046FFF75EFE73
:102B80004149087030E0434B2A4641463046FFF742
:102B900055FE3D49087027E03E4B2A4641463046E7
:102BA000FFF795FE384908701EE03A4B2A46414629
:102BB0003046FFF78CFE3449087015E0354B2A4645
:102BC00041463046FFF783FE2F4908700CE031483C
:102BD0002B4600903148414602683046FFF7ABFE75
:102BE0002949087000E000BF00BF2C48006800F0D1
:102BF000ADFB25480078E8B10120204908604FF07E
:102C0000000704E02349C85D00F0E3F87F1C1E487C
:102C100000788742F6DB0A20FFF725FBFFF704FF69
:102C2000FFF7F7FE0020184908701649087013498D
:102C3000086000BF00BF0DE710B540F225511848ED
:102C4000FEF72CF858B11648FDF7A8FFC1B20D48A1
:102C500002780078401C0B4B18700D48815440F2EC
:102C600024410F48FEF71AF838B10D4800880C4887
:102C7000001D008801200249087010BDAC012142EE
:102C800060000020440000204C000020480000208C
:102C9000BC020020EE020020540000205C00002056
:102CA0000038014008B54FF4E060FDF74BFA2520ED
:102CB0008DF8000000208DF8010001208DF8020041
:102CC0008DF803006846FDF742FA26208DF80000D3
:102CD00000208DF8010002208DF8020001208DF8FF
:102CE00003006846FDF733FA27208DF80000002026
:102CF0008DF8010003208DF8020001208DF80300FB
:102D00006846FDF724FA34208DF8000000208DF885
:102D1000010004208DF8020001208DF803006846B0
:102D2000FDF715FA08BD000008B501210420FDF7E4
:102D30008DFD4FF48060ADF8000004208DF8030095
:102D40006946F648FDF7CCFA4FF40070ADF8000084
:102D500003208DF8020018208DF803006946EF4823
:102D6000FDF7BEFA08BD7FB505460C46FFF7DCFF50
:102D7000012144F20100FDF769FD00950020ADF846
:102D80000400ADF80600ADF808000C20ADF80A000C
:102D90000020ADF80C006946E148FDF702FE012C69
:102DA0000BD1012240F22551DD48FDF792FE0122B0
:102DB00040F22441DA48FDF78CFE0121D848FDF7A6
:102DC0007CFE7FBD00BF028812F0400FFBD08180E7
:102DD000704700B503461946D148FFF7F3FF00BD21
:102DE0002DE9F04106460C46204600F0ABF987B2CB
:102DF000002505E0615D3046FFF7E4FF681C85B201
:102E0000BD42F7DBBDE8F08110B504462146C44859
:102E1000FFF7E6FF10BD3EB504462246C1A1684655
:102E200000F0C0F96846FFF7EFFF3EBD08B501218D
:102E30000420FDF70BFD0820ADF8000004208DF8FC
:102E400003006946B548FDF74BFA0420ADF80000D1
:102E500003208DF8020018208DF803006946AF4862
:102E6000FDF73EFA08BD7FB505460C46FFF7DEFFCD
:102E700001214804FDF7F7FC00950020ADF804009F
:102E8000ADF80600ADF808000C20ADF80A000020EF
:102E9000ADF80C006946A448FDF783FD012C0BD169
:102EA000012240F22551A048FDF713FE012240F215
:102EB00024419D48FDF70DFE01219B48FDF7FDFDD6
:102EC0007FBD00B5034619469748FFF77BFF00BD5D
:102ED00010B5044621469448FFF782FF10BD3EB569
:102EE000044622468FA1684600F05CF96846FFF769
:102EF000EFFF3EBD08B501210820FDF7A7FC4FF408
:102F00000060ADF8000004208DF803006946874892
:102F1000FDF7E6F94FF48060ADF8000003208DF86E
:102F2000020018208DF8030069468048FDF7D8F9A3
:102F300008BD7FB505460C46FFF7DCFF012188047C
:102F4000FDF791FC00950020ADF80400ADF80600F7
:102F5000ADF808000C20ADF80A000020ADF80C0018
:102F600069467348FDF71DFD012C0BD1012240F28B
:102F700025516F48FDF7ADFD012240F224416C4818
:102F8000FDF7A7FD01216A48FDF797FD7FBD00B55C
:102F9000034619466648FFF715FF00BD10B5044605
:102FA00021466348FFF71CFF10BD08B50121102022
:102FB000FDF74CFC4FF40060ADF8000004208DF8E4
:102FC000030069465B48FDF78BF94FF48060ADF86C
:102FD000000003208DF8020018208DF803006946D8
:102FE0005448FDF77DF908BD7FB505460C46FFF74F
:102FF000DCFF0121C804FDF736FC00950020ADF888
:103000000400ADF80600ADF808000C20ADF80A0089
:103010000020ADF80C0069464748FDF7C2FC012CC2
:103020000BD1012240F225514348FDF752FD012208
:1030300040F224414048FDF74CFD01213E48FDF798
:103040003CFD7FBD00B5034619463B48FFF7BAFE7D
:1030500000BD10B5044621463748FFF7C1FE10BD3C
:1030600008B501211020FDF7F1FB01212020FDF71B
:10307000EDFB0420ADF800008DF8030069462F48F1
:10308000FDF72EF94FF48050ADF8000003208DF8C5
:10309000020018208DF8030069462648FDF720F944
:1030A00008BD7FB505460C46FFF7DAFF012108058C
:1030B000FDF7D9FB00950020ADF80400ADF806003F
:1030C000ADF808000C20ADF80A000020ADF80C00A7
:1030D00069461B48FDF765FC012C0BD1012240F22B
:1030E00025511748FDF7F5FC012240F22441144810
:1030F000FDF7EFFC01211248FDF7DFFC7FBD00B5B5
:10310000034619460E48FFF75DFE00BD10B50446A4
:1031100021460B48FFF764FE10BD00000008014087
:103120000038014025750A0000440040000C0140B1
:103130000048004000100140004C004000140140D5
:1031400000500040421C10F8011B0029FBD1801ADE
:10315000704730B50B46014600202022012409E0CB
:1031600021FA02F59D4205D303FA02F5491B04FA40
:1031700002F52844151EA2F10102F1DC30BD000069
:10318000064C074D06E0E06840F0010394E80700B4
:1031900098471034AC42F6D3FCF7CEFF083600084F
:1031A000283600080FB4084B10B504A902AA0398EA
:1031B00000F01CF8044602A9002000F0C1F82046E7
:1031C00010BC5DF814FB00004133000802E008C8A1
:1031D000121F08C1002AFAD170477047002001E091
:1031E00001C1121F002AFBD1704700002DE9FF4FDB
:1031F00089B09B460446002597E0252833D1002757
:10320000641C4E49B84601222378203B02FA03F0A1
:10321000084202D00743641CF6E720782E2819D113
:1032200014F8010F47F004072A280ED06FF02F0280
:103230002078A0F1300109290CD808EB880102EBB5
:10324000410100EB0108641CF2E70A98641C50F885
:10325000048B0A90207800286BD0642808D0692855
:1032600006D0752820D05A460B9990476D1C5BE01C
:103270000A994FF00A0901C90A91002804DAC0F13D
:1032800000004FF02D0102E0390504D52B218DF807
:103290002010012103E0F90704D02021F7E78A4636
:1032A00008AE0EE00021FAE70A994FF00A0901C9B9
:1032B0000A91F7E74946FFF74CFF01F1300106F8A4
:1032C000011D0028F6D1ADEB060000F120097807BA
:1032D00001D44FF00108C84502DDA8EB090000E069
:1032E00000208046002706E008A85A46C05D0B99DA
:1032F00090476D1C7F1C5745F6DB04E030205A4692
:103300000B9990476D1CB8F10001A8F10108F5DC9C
:1033100005E016F8010B5A460B9990476D1CB9F160
:103320000001A9F10109F4DC641C207800287FF475
:1033300064AF0DB02846BDE8F08F000009280100F9
:103340000A68531C0B6010707047000010B500280D
:1033500021D0114B001F0022196803E0814203D8DD
:103360000A4649680029F9D152B11368841A9C426F
:1033700004D1006818441060104602E0506000E07C
:10338000186039B102680B1A934203D10B681A44D2
:1033900002604968416010BD64000020F0B50B3048
:1033A000154D20F007010024144A0FE003688B42FA
:1033B0000BD38B4205D95E1A43184768C3E90067EF
:1033C00000E04368136002C004E0021D106800289A
:1033D000ECD12046002802D1286808B10020F0BDB9
:1033E000064A07481060074A121A22F00702C0E98D
:1033F000002401202860D7E7680000206400002036
:10340000240300202005002000C1814001C080412C
:1034100001C0804100C1814001C0804100C18140A4
:1034200000C1814001C0804101C0804100C1814094
:1034300000C1814001C0804100C1814001C0804184
:1034400001C0804100C1814001C0804100C1814074
:1034500000C1814001C0804100C1814001C0804164
:1034600001C0804100C1814000C1814001C0804154
:1034700001C0804100C1814001C0804100C1814044
:1034800000C1814001C0804101C0804100C1814034
:1034900000C1814001C0804100C1814001C0804124
:1034A00001C0804100C1814000C1814001C0804114
:1034B00001C0804100C1814001C0804100C1814004
:1034C00000C1814001C0804100C1814001C08041F4
:1034D00001C0804100C1814001C0804100C18140E4
:1034E00000C1814001C0804101C0804100C18140D4
:1034F00000C1814001C0804100C1814001C08041C4
:1035000001C0804100C1814000C0C101C30302C2AB
:10351000C60607C705C5C404CC0C0DCD0FCFCE0E13
:103520000ACACB0BC90908C8D81819D91BDBDA1A83
:103530001EDEDF1FDD1D1CDC14D4D515D71716D6F3
:10354000D21213D311D1D010F03031F133F3F23263
:1035500036F6F737F53534F43CFCFD3DFF3F3EFED3
:10356000FA3A3BFB39F9F83828E8E929EB2B2AEA43
:10357000EE2E2FEF2DEDEC2CE42425E527E7E626B3
:1035800022E2E323E12120E0A06061A163A3A26223
:1035900066A6A767A56564A46CACAD6DAF6F6EAE93
:1035A000AA6A6BAB69A9A86878B8B979BB7B7ABA03
:1035B000BE7E7FBF7DBDBC7CB47475B577B7B67673
:1035C00072B2B373B17170B05090915193535292E3
:1035D00096565797559594549C5C5D9D5F9F9E5E53
:1035E0005A9A9B5B99595898884849894B8B8A4AC3
:1035F0004E8E8F4F8D4D4C8C448485458747468633
:103600008242438341818040283600080000002028
:103610006C000000CC310008943600086C000020DB
:10362000B4080000DC3100080000000001020304BF
:10363000010203040607080902040608000000004E
:103640000000000000A24A0400000000000000008A
:103650000102030406070809000000000000000042
:10366000000000000000000000000000000000005A
:10367000000000000000000000000000000000004A
:10368000000000000000000000000000000000003A
:043690000000000036
:0400000508000131BD
:00000001FF
