:020000000C945E
:1000020077000C9400000C9400000C9400000C94F7
:1000120000000C9400000C9400000C9400000C945E
:100022004A010C9400000C9400000C9400000C9403
:1000320000000C9400000C9400000C9400000C943E
:1000420000000C9400000C9400000C9400000C942E
:1000520000006400C80090012003F8FFFCFFFEFFCF
:10006200FFFF0000000046697265205761726E69E9
:100072006E670054656D703D252E3166002020208C
:1000820020202020202020202020202000526F200D
:100092007269206B68692047617320200043616E9A
:1000A200682062616F206368617920200043616E7D
:1000B200682062616F206E6869657420000080C0EC
:1000C2002D4E414E000001002D4E414E00494E463C
:1000D20000000D00600168000400040064000200DA
:1000E2008A01C00001008E01C8000000F894EE27CA
:1000F200ECBBF1E0FBBFEBBFE5BFF8E1F1BDE1BD59
:100102008DE0A2E0BB27ED938A95E9F780E094E0C9
:10011200A0E6ED930197E9F7E4EDF0E08591959182
:10012200009761F0A591B59105901590BF01F0017E
:1001320005900D920197E1F7FB01F0CFEFE5EDBFDE
:10014200E4E0EEBFC0E6D1E00C94A700E0E0EBBB38
:10015200EFEFEABBE0E0E8BBE7BBE6E0E5BBE8EFD8
:10016200E4BBE0E0E2BBE1BBE3BFE2BFECBFEFBD5B
:10017200E3E0EEBDEDE6EDBDE4E8ECBDE0E0E7BDB9
:10018200E6BDEBBDEABDE9BDE8BDE2BDE5BDE4BD4E
:10019200E3BDE5BFE4BFE4E0E9BFE0E0EAB9E0E8DF
:1001A200E8B9E0E0E0BFE6B9EDB9E6BF0E94B50804
:1001B200E0E1EA930E94AC025A924A920E944007FE
:1001C200E3E0EA930BD1AC9AAB980E9440070E94FD
:1001D2006E02E0E6F1E00E944407E0EDF7E00E94E3
:1001E20048070E947B0278940E944C070E9459079C
:1001F200E5E7F0E0FA93EA93E0917601F091770176
:1002020060917801709179010E94550B84E00E94FF
:100212000A0628960E9440070E945E07E4E6F0E084
:100222000E9448070E945907EFE7F0E00E94630727
:1002320077249A9907C00E946E07EFE8F0E00E94C7
:100242006307F7CFA0E09999A1E0A03039F40E94AA
:10025200710709F010F40C942F0101C009C00E942B
:100262006E07EFE9F0E00E9463070E944C07EACFB5
:100272000E94710709F010F40C9448010E946E0765
:10028200EFEAF0E00E9463070E944C07F1CFACCF87
:10029200FFCFEA93EFB7EA93EDE6EDBDE4E8ECBDFC
:1002A200E1E0E71559F4AC9B02C0AC9801C0AC9AEE
:1002B200AB9B02C0AB9801C0AB9A02C0AC9AAB98A0
:1002C200E991EFBFE99118951A930E94B508E030C1
:1002D20011F4E0E03DC1E981FA81309789F0E5E56A
:1002E200EA930E94FB0810E0A981BA81ED91A983EB
:1002F200BA83EA930E94FB081F5F1830A8F304C078
:10030200ECECEA930E94FB08E1E022C10E946D0B33
:10031200EC81FD810E94800711F4E0E01DC0EEEB4C
:10032200EA930E94FB0810E02DE631E03F932F9301
:100332002F5F3F4F0E94F608AF91BF91EC931F5F72
:100342001930A0F3EDE6F1E0FA93EA93E9E0EA93DB
:100352000E9405090E94E40A0E94740B26960895E1
:100362001A930E94860719F40E948E07F1C0A09189
:100372007101B0E0E5E00E94D00AE3701E2FE9812E
:10038200FA810E94800719F40E948E07E1C0E4E41A
:10039200EA930E94FB08E12FA4E5B0E00E949307D4
:1003A2000E9448070E94860719F40E948E07D0C057
:1003B2000E94B508E12FACE5B0E00E949307A0913E
:1003C2006D01B0916E01EA23FB230E949B07A0E01E
:1003D200B0E080E89DE30E94110ABAC0EB81FC8183
:1003E2000E94800719F4E0E00C941503E881E2957D
:1003F200E07FEE0FEF61E883EEE4EA930E94FB08F0
:10040200E981EA930E94FB08EA81EA930E94FB08D1
:10041200E881EA930E94FB08EB81FC81FA93EA935C
:1004220075DFE03019F4E0E00C941503A09170013F
:10043200EA81EA1751F4A0916F01E981EA1729F4E0
:10044200A0917101E881EA1719F0E0E00C9415031C
:10045200EB81FC810E94800719F4E0E00C94150303
:10046200E8E4EA930E94FB08EFE0F0E00E9448070C
:100472000E94B5080C941503E881E07111F0DC9A32
:1004820001C0DC98E881E07211F0DD9A01C0DD98CC
:10049200E881E07411F0DE9A01C0DE98E881E0782C
:1004A20011F0DF9A01C0DF9885E08A95F1F7DA9AB8
:1004B2008DE08A95F1F7DA988DE08A95F1F77CC0A4
:1004C200E881EA93D9DFE881E295E883E881EA935B
:1004D200D3DF85E88A95F1F76FC0E881F0E0E6574F
:1004E200FE4FE081A981EA0FEA93EADF69809880F2
:1004F20022960895E2E00E94A007ECE0EA93E0DF92
:10050200E1E00E94A007E0E09E2E6E2E0895A881F1
:10051200AA3011F0681448F0E0E0EA9393949A92BA
:10052200DCDFA881AA3009F447C06394D89AE88135
:10053200EA93C6DFD89840C01A93A981BA81ED9197
:10054200A983BA831E2FE03019F01A93E0DFF5CFAA
:10055200188123960895D49AD59AD69AD79AD29A80
:10056200D09AD19ADA98D898D9988880E881E058B8
:10057200E0938C01E881E054E0938D01E4E1F0E046
:100582000E9448070E94A6070E94A6070E94A6078B
:10059200E0E2EA9371DF88EC90E00197F1F7E8E29C
:1005A200EA938EDFE4E0EA938BDFE5E8EA9388DF03
:1005B200E6E0EA9385DF9EDF219608951A930A9377
:1005C200AA81BB8112960E943D0B309729F1AA8124
:1005D200BB8114960E943D0B8F01309761F002306F
:1005E200E0E01E07C0F0F80131978F01AA81BB81BC
:1005F2001496ED93FC93AA81BB8112960E94AF07D9
:100602003197AC81A083AA81BB810E943D0BFF235D
:1006120012F00E94AF0706C0AA81BB81EFEFFFEF85
:10062200ED93FC9319810881259608952497E0E0C3
:10063200E883E983E0E8EA83EFE3EB830E946D0B52
:10064200EE85FF85EF3FAFEFFA0749F4E885F985BC
:10065200FA93EA93E2ECF0E00E94B507B8C0EF3FEC
:10066200AFE7FA0749F4E885F985FA93EA93E3ECF0
:10067200F0E00E94B507ABC0AB85A73010F0E6E012
:10068200EB871B85E12F1150E03019F00E94B9076A
:10069200F9CFEC85FD856E857F850E94670B21F47D
:1006A20030E00E94B9072EC03B850E94C80709F0BE
:1006B20010F40C9467030E94B9070E94C80728F03F
:1006C2000E94D3070E94D807F8CF0DC00E94C80726
:1006D20040F40E94D3070E94E4070E94EB073150C6
:1006E200F5CF0E94B907EC85FD856E857F850E9456
:1006F200F0070E94EB070E94C80720F00E94D30770
:100702000E94D80710E0EB85E117A8F1AC81BD810A
:100712008E819F810E94F7070E94F0070E94550B6D
:100722000E948F06EC83FD836E837F830E94D30732
:100732000E945F0A0E944E090E2F0E94FE070E942D
:100742000508FF27662777270E948709AC81BD81AC
:100752008E819F810E94110A0E94D3070E940A087B
:100762000E94EB07E12F1F5FE03069F60E94FE074F
:10077200EEE2EC93C8CF0E940F083197AA85A083BE
:1007820030302CF43195A885B985EDE203C0A885F7
:10079200B985EBE2EC930E940F080E940F08319793
:1007A200BF01A32FEAE00E94F70AE05DDB01EC93B0
:1007B2000E940F083197BF01A32FEAE00E94210B8C
:1007C200E05DDB01EC93A885B985E0E0EC930E9443
:1007D200740B60960895EF9761970E946B0B10E07F
:1007E200FE01E85AFF4F0190F081E02DE887F9877A
:1007F200FE01EA5AFF4F0190F081E02DEE83FF8364
:10080200AE81BF81E0E0F0E0ED93FC93DE01A45AFB
:10081200BF4F0E94AF073197E4912E2FE03011F4C1
:100822000C940106E12FE03039F4253211F411E085
:1008320002C00E941508E3C1E130C1F4253219F467
:100842000E941508DBC112E0E0E0ED8B00E02D32E2
:1008520011F401E0D4C12B3219F4EBE2ED8BCFC1DC
:10086200203219F4E0E2ED8BCAC102C0E23039F461
:1008720050E013E0203311F40068C1C102C0E3303C
:1008820091F4203310F02A3308F007C0AAE05A9FEF
:10089200502DE22FE0535E0FB2C140E02E3211F430
:1008A20014E0ADC10FC0E43099F4203310F02A33C4
:1008B20008F008C00062AAE04A9F402DE22FE053F0
:1008C2004E0F9DC12C3619F4026015E098C104C088
:1008D200E53011F00C940006E22FE33659F40E9441
:1008E2001E080E9425080E941E08A481AA930E9445
:1008F2002C0884C1E53411F0E53609F404C0E6366B
:1009020011F00C94CE04FE017696EE87FF870E94CA
:1009120034080E94410B0E943B080E944008AD85AA
:10092200AA2322F0AD89AB3249F017C00E944208D7
:100932000E941B090E943B08EDE2ED8B07FF05C0F8
:10094200ED89EA930E942C0808C0EE85FF85319656
:10095200EE87FF873197AD89A08305FF46E02636F3
:1009620061F40E9442080E94550B4A93EB89FC896C
:10097200FA93EA930E94A6060BC00E9442080E94C4
:10098200550B4A932A93EC89FD89FA93EA934EDE3A
:10099200FE0176960E9447081EC0E33739F40E9492
:1009A20040080E944F080E9447080EC0E037C1F479
:1009B2000E9440080E944F08EE87FF87FA93EA934D
:1009C2000E9455061E2F08600F77403011F0411724
:1009D20008F001C0142F40E0E0E0EC8B30E06EC084
:1009E200E43611F0E93611F4046002C0E537A1F4EF
:1009F200EAE0EC8B01FF08C0E0E0FAEC6AE97BE395
:100A02000E9454081AE023C0E0E1F7E260E070E0DF
:100A12000E94540815E01BC0E83511F4086004C0B8
:100A2200E83711F00C94FF05E0E1EC8B01FF08C000
:100A3200E0E0F0E060E070E10E94540818E007C0D6
:100A4200E0E0F0E160E070E00E94540814E0403021
:100A520011F00F7701C041E001FF08C00E94400879
:100A62000E94340814960E94410B0FC002FF07C077
:100A72000E9440080E944F080E94DF0A06C00E949E
:100A820040080E944F0866277727EA87FB876C8712
:100A92007D8702FF12C0AD85AA2342F40E9442085C
:100AA2000E94C80A0E943B08EDE2ED8BED89E0301E
:100AB20019F01F5F4F5F01C00B7F342F00FD14C080
:100AC200151710F4351708F00FC007FF08C002FF12
:100AD20004C00B7F2D89115001C020E301C020E228
:100AE2000E9415085150ECCF141790F4006102FFD8
:100AF20006C00E94590809F0515011504150E0E3DC
:100B0200EA930E942C08503009F051504150ECCF2A
:100B1200312FEC89E030B9F43030A1F003FF06C088
:100B2200EE85FF852591EE87FF8705C0AE85BF85DF
:100B32002D91AE87BF870E941508503009F05150A1
:100B42003150EACF51C00E946D080E94FC0A2E2F3C
:100B52002A3030F003FF02C0295C01C0295A01C0CB
:100B6200205D04FD21C0213360F4A889B9898A89F6
:100B72009B89A130E0E0BE07E0E08E07E0E09E073F
:100B820009F40BC0431740F4531710F000FF01C0E3
:100B920010C020E207FF08C020E3006102FF04C08A
:100BA2000E94590809F051500E941508503009F06E
:100BB200515031500E946D080E942D0B0E943B083B
:100BC200EC89A889B9898A899B89FF2766277727B3
:100BD2000E94FC0A0E945408E889F9896A897B8983
:100BE2000E94670B09F0AFCF00FF08C0503031F010
:100BF2005150E0E2EA930E942C08F8CF10E006CEB2
:100C0200AE81BF810E943D0B0E94720BEF966F96E0
:100C12000895FF92F82E26970E946D0B0E94760887
:100C2200309719F4EFEFFFEF25C0DE0116960E9410
:100C3200C40A8D010E947608EE83FF83E0E0E88714
:100C4200E987DE011A960E94C40A0E943D0BFA93BC
:100C5200EA931A930A93EFEDF2E0FA93EA93FE0114
:100C62003A96FA93EA93B7DD9F01AE81BF81E0E045
:100C7200EC93F9010E94740B2A96FF900895E99172
:100C8200F991A991B991CD0105900D920020E1F75A
:100C9200FC010895A991B991EE27FF276D91662372
:100CA20011F03196FBCF0895AA27BB27E991F9915C
:100CB2000590002011F01196FBCFFD0108957B8174
:100CC2006A81F981E88177FB770F67FD7160972F61
:100CD2009E5781F078F0983190F4AA27BB27882795
:100CE20008948795B795A7959A95D1F7EA23FB23A0
:100CF200682305C0E8947727EE27FF2766276F77DA
:100D0200769508F4606877F9A991B99189919991DA
:100D1200EA17FB076807790797FB08950E947D0889
:100D22000E94550B0E9460060E94500B19F40E940B
:100D32007D0809C0E6F70E947D08A0E0B0E080E8E7
:100D42009FE30E94BA09249608952497E0E0E8837D
:100D5200E983EA83EFE3EB831A930A93EB85FC853D
:100D6200EF3FAFEFFA0729F4CAD1EAECF0E0FCD08A
:100D720082C0EF3FAFE7FA0729F4C1D1EBECF0E014
:100D8200F3D079C0AC85AA2352F4E985FA856B8544
:100D92007C850E941B09B8D1BCD1EDE2EC93A885F9
:100DA200A73010F0E6E0E8871885E12F1150E03017
:100DB20021F0B6D11BD1B9D1F8CFBCD10E94C10963
:100DC200A3D110E0E0E0F0E060E87FE3AED1B2D181
:100DD2000E94A40A60F0A4D1F6D0A7D11F5F1732F7
:100DE20028F08DD1EFECF0E0BFD045C0F0CF10304D
:100DF20021F48FD1E0E3EC931DC0E12F1150E030DC
:100E0200C9F08ED1F3D0EBD00E94550B0E948F0611
:100E12008CD190D10E945F0A0E944E090E2F79D187
:100E2200F3D0F0E07DD186D00E94110A8CD1F1D0AE
:100E32006BD1E3CFE885E030D1F06BD1EEE2EC93F9
:100E4200E885E150E887EF5F91F07DD1BCD05CD1BD
:100E5200E985FA856B857C850E944E090E2F59D152
:100E6200D3D0F0E070D166D0D4D04ED1E9CFAE81EC
:100E7200BF81E0E0EC93198108812D960895E0E0AE
:100E8200EA93EA930895FA93EA930C949D02FA93F3
:100E9200EA930C94A9085A924A920E94B101E093F3
:100EA2007601F09377016093780170937901089548
:100EB200EAE7F1E0FA93EA9308950E946E02EAE704
:100EC200F1E0E1CFFA93EA9380E00E940A062496C9
:100ED200E0E0EA93E1E0EA93F0CFE1E07E2EE8CFB2
:100EE200A0917601B091770180917801909179017A
:100EF200E0E0F0E060E272E40E94A40A0895FA934E
:100F0200EA930E946501E0300895E981FA81FA933B
:100F1200EA930E948701E0300895E0E0FCE36CE18F
:100F220076EC0895F0E0EE0FFF1FEA0FFB1F0E9420
:100F3200470B08950E94DF0A0E9487090895EA93E9
:100F42000E946102E3E0F0E0A2CFE0E3EA930E94B4
:100F52003D0288EC90E00197F1F70895ED91FD9143
:100F62003196FE93EE930895FA93EA930C94400619
:100F7200AC81BD818E819F81E0E0F0E060E271E4AE
:100F82000E94110AEC83FD836E837F830895EC81B6
:100F9200FD816E817F81AC85BD858E859F850E9496
:100FA200A40A0895AC85BD858E859F850895EDECD4
:100FB200FCEC6CEC7DE30E94110AEC87FD876E87E6
:100FC2007F873F5F0895E0E0F0E060E271E40E9415
:100FD200110A0895EC87FD876E877F870895A0E048
:100FE200B0E080E09FE30E94C1090895EDECFCECC3
:100FF2006CEC7DE30E94110A0895A885B9851196CB
:10100200A887B98711970895E02FE05DEC93E02F50
:1010120008950E945A0B0E94BA090895E885F9853D
:101022003196E887F98708952A93EF81F885FA9334
:10103200EA93EB85FC8509950895FE01E65AFF4F78
:101042000190F081E02D08953497DE01A65ABF4F3A
:10105200ED93FC930895EF81F885FA93EA93EB857B
:10106200FC8509950895DE01A65ABF4F0D90BC91EB
:10107200A02D0895EA87FB876C877D870895DDDFC1
:10108200E3CFEA85FB856C857D850895EE87FF8732
:10109200FA93EA930E944B061E2F0895E4DF1496FA
:1010A2000E943D0B0895E88BF98B6A8B7B8B089528
:1010B2000B7FED89EA93FE01E95AFF4F0190F0811F
:1010C200E02DFA93EA93FE01E55AFF4F0190F08179
:1010D200E02D099550300895E889F9896A897B895C
:1010E200AA85BB858C859D850895DE011C960E948C
:1010F200C40A0E943D0B08950E944B0B0895EE8195
:10110200FF81FA93EA930895E987FA876B877C87D0
:101112000895AE81BF811196AE83BF831197089562
:10112200AA81BB818C819D810895EA83FB836C83B4
:101132007D830895EA81FB816C817D81A985BA85D1
:101142008B859C850895A985BA858B859C85089594
:10115200E991F991309639F080ED97E00197F1F736
:10116200A8953197C9F70895EE27A898A09A80EC20
:1011720093E00197F1F7A09885E28A95F1F7989BA1
:1011820008958BEC8A95F1F7989BE1E08CE093E06F
:101192000197F1F70895A09A85E08A95F1F7A09852
:1011A2008DE18A95F1F7889498990894E79585EDF1
:1011B2008A95F1F70895E894A09A85E08A95F1F767
:1011C20070FDA09883E28A95F1F7989903C070FFA9
:1011D20003C0089570FF089588EC8A95F1F7A098EE
:1011E2008DE08A95F1F76894089568E0D4DF6A95F6
:1011F200E9F7089568E07991EE27DDDF26F4779527
:101202006A95D9F7E3950895EE278881882381F0BE
:1012120068E1A981BA8198E0FD917F2F7E277795B9
:1012220008F4E627E795F6959A95B9F78A9599F71E
:101232002396089530976040704009F070580895E1
:10124200552342F4503811F4E0FF04C03196691F6F
:10125200791F6BF050E8572711F45F93CFC05F3FBF
:1012620031F0660F000C57956795752F08955F93BF
:1012720000200AF0CFC0C8C050E8192E1522880FEE
:10128200991F9527550F879550E8072E0522660F5F
:10129200771F7527550F67950895689401C0E894E4
:1012A2005F93F2DF703818F07F3F08F4A7C056E171
:1012B200571BAAF4519558300EF4593030F0EFEF25
:1012C200FFEF6FEF7FE777F91AC077275523B9F061
:1012D200EE0FFF1F661F771F5A95D1F710C07727B1
:1012E200583028F0EF2FF62F672F5850F9CF55239B
:1012F20031F076956795F795E7955A95D1F70020E5
:101302000AF445D15F910895689401C0E89430973A
:1013120060407040B1F0002426F0772312F400946C
:1013220036D1172E7EE1112032F07A95EE0FFF1F93
:10133200661F111CF9CFEF2FF62F612D5F938ADF05
:101342005F9108954F93AF01FD01DA01AB01BC013A
:10135200CA01402D012C142E4F910895EA0FFB1F54
:10136200681F0895E095F0956095EF5FFF4F6F4F0E
:1013720008955F9381DF903871F150E8152604C01B
:101382005F937ADF903839F1703821F1572F591B6A
:101392002BF112F4D7DFFACF583118F0AA27BB2766
:1013A2008827583028F0AB2FB82F88275850F9CF0C
:1013B200552329F08695B795A7955A95D9F7502DBB
:1013C200512572F0CBDF38F46795F795E795739561
:1013D20013F420C0B7DF3EDF5F910895D8F7FBCF4B
:1013E200EA1BFB0B680B51F010F40094BBDF662381
:1013F20092F3EE0FFF1F661F7A95CBF7EE27FF27BA
:10140200662777275F910895EFEFFFEF6FE77FEF92
:101412005F910895EFEFFFEF6FE77FE75F91089528
:101422005F932ADF703851F3903841F30124089416
:10143200791F23F41CF300203AF3ECCF0F921F9391
:101442002F933F934F93112722279927689FA0013B
:101452008F9F302D410D591F6B9F300D411D591F1C
:101462008E9F27D0BF9F25D06A9F23D0BE9F1DD0BD
:10147200AF9F1BD0AE9F110D291F391F491F591F46
:10148200E32FF42F652F522F4F913F912F911F91F0
:101492000F9066232AF0550FEE1FFF1F661F02C032
:1014A20073954BF2CDDE5F910895100D211D391F0A
:1014B20002C0200D311D491F591F08955F93DCDEC4
:1014C200703821F411200AF49FCFA4CF903809F488
:1014D20095CF01240894970B1BF4D4F30020F3CF8B
:1014E200792F1F932F933F934F9311241127222774
:1014F20033274427552790E2AE17BF0786074107D7
:1015020030F0AE1BBF0B860B410B089401C08894D0
:10151200551F221F331F111CAA1FBB1F881F441FE8
:101522009A9551F7F901612D4F913F912F911F919A
:10153200662332F0550FEE1FFF1F661F7A9543F2A6
:101542007FDE5F91089599239AF0772342F09717EF
:1015520048F029F4AE17BF07860720F031F09894BF
:1015620088940895989408940895189488940895F6
:101572007723C2F7971798F3A9F7EA17FB076807CB
:1015820088F399F3ECCF0024AF0DB01D0895F095C8
:1015920060957095E195FF4F6F4F7F4F0895EE2351
:1015A2000E2EFD0121F0F595E7950A94E1F70895D5
:1015B200FE2FFF0FFF0B6F2F7F2F08956F2F660FE8
:1015C200660B762F0895EE23E1E009F0EE270895E9
:1015D200002498E0AA0F001C0E1A10F40E0E01C08F
:1015E200A1609A95B9F7EA2FA02D089539D0F0DFBE
:1015F2000EF4E19508953F934F935F9300241124D5
:101602004427552730E2AA0FBB1F881F991F001CD1
:10161200111C441F551F0E1A1F0A460B570B28F4A4
:101622000E0E1F1E461F571F01C0A1603A9559F7A3
:10163200FD01BC01D001CA015F914F913F91089514
:10164200E894A7FF02C0A1956894E7FDE195C0DF89
:10165200EA2F0EF4E1950895CEDFFD01BC01089555
:10166200E894E7FF02C0E1956894A7FF04C0A19542
:1016720000F8039400FA0895ED91FC9111970895F2
:10168200ED91FD916D917C91139708950590F491E0
:10169200E02D0895E881F9816A817B810895E883CC
:1016A200F9836A837B8308957A936A93FA93EA9320
:1016B2000895182E862F612D192E972F712D1B2E0E
:1016C200BF2FF12D1A2EAE2FE12D089530976040D5
:1016D200704008955A934A933A932A931A930A931D
:1016E20008955D814C813B812A8119810881089589
:00000001FF
